:100000000C9452000C9405020C9464000C9464004F
:100010000C9464000C9464000C9464000C946400D0
:100020000C9464000C9464000C9464000C946400C0
:100030000C9464000C9464000C942D020C946400E5
:100040000C9464000C9464000C9494000C94640070
:100050000C94CD000C9464000C9464000C94640027
:100060000C9464000C9464004E414E494E4954591E
:10007000494E46CDCCCC3D0AD7233C17B7D1387773
:10008000CC2B329595E6241FB14F0A000020410089
:1000900000C84200401C4620BCBE4CCA1B0E5AAED3
:1000A000C59D740011241FBECFEFD8E0DEBFCDBFC9
:1000B00021E0A0E0B1E001C01D92A43AB207E1F74F
:1000C0000E9457010C94A0060C9400000F931F93FC
:1000D000CF93DF93C1E2D1E009E211E00E943E013B
:1000E0008993C017D107D1F70E943701DF91CF91D3
:1000F0001F910F9108950E9466009091210181E067
:100100009B3209F080E0811106C081E09D3209F048
:1001100080E0882341F082E291E00E94D90390932D
:1001200001018093000108951F920F920FB60F9264
:1001300011248F93EF93FF9380910201803228F571
:100140008091C600E0910401F0E0E55DFE4F808300
:10015000863229F42D9A81E080936B0107C08436A2
:1001600021F481E08093050101C02D988091040164
:100170008F5F803219F08093040102C01092040155
:10018000809102018F5F80930201FF91EF918F9127
:100190000F900FBE0F901F9018951F920F920FB6E1
:1001A0000F9211248F93EF93FF9380910601882380
:1001B000B9F0E0910701F0E0E55BFE4F80818093AC
:1001C000C60080910601815080930601809107014D
:1001D0008F5F803219F08093070102C010920701EF
:1001E000FF91EF918F910F900FBE0F901F90189578
:1001F0009093C5008093C40086E08093C200E1EC38
:10020000F0E08081886D8083789408959091C0009B
:1002100095FF07C090910601911103C08093C6001D
:10022000089590910601903290F420910801E22FF8
:10023000F0E0E55BFE4F80839F5F909306012F5FA8
:10024000203219F0209308010895109208010895B2
:10025000CF93DF93EC018881882331F021960E94AF
:10026000060189918111FBCFDF91CF910895109202
:10027000040110920301109202010895809102017D
:100280008823A1F090910301E92FF0E0E55DFE4F96
:1002900020818150809302019F5F903221F09093E2
:1002A0000301822F089510920301822F08950E9466
:1002B000690287E690E00E94F8000E94F501C3EB16
:1002C000D0E08091960181110E9483028091970174
:1002D0008823D9F00E94C90289E991E00E94D503E0
:1002E00060938001709381018093820190938301D8
:1002F00020E030E0A9010E94AC03181624F488E93C
:1003000091E00E9428011092970180916B0188234F
:1003100021F00E947B0010926B01809105018823DF
:1003200041F080916C0190916D010E942801109222
:1003300005018091000190910101892B69F120E074
:1003400030E040EA51E46091800170918101809138
:100350008201909183010E94AC031816ECF40E9474
:1003600000026091800170918101809182019091E1
:1003700083010E941003DC01CB0190937F018093E5
:100380007E0160916C0170916D014AE00E94F7035B
:1003900090936D0180936C01C0908001D090810199
:1003A000E0908201F090830180917E0190917F0125
:1003B000BC0162507109072E000C880B990B0E943A
:1003C0004803A70196010E94AC0318160CF079CFE0
:1003D00020E030E040EA50E4C701B6010E94AC03DF
:1003E00018160CF06ECF18826CCF88E284B983E8BF
:1003F0008093B00081E08093B1001092B300089523
:10040000809100018093B30008951F920F920FB660
:100410000F9211248F93EF93FF9310920901E898A4
:10042000EEE6F0E080818D7F808385B58D7F85BD90
:1004300089E086BD85B5826085BD87E687BD10925F
:100440001F01808182608083A99AFF91EF918F9133
:100450000F900FBE0F901F9018951F920F920FB61E
:100460000F9211248F93EF93FF93809109018111D3
:1004700006C081E08093090180ED87BD22C080ED38
:1004800087BD80911F01883090F480911F018F5F9C
:1004900080931F01809120018695809320014A9BC3
:1004A00010C0809120018068809320010AC081E003
:1004B00080939601EEE6F0E080818D7F8083E09A64
:1004C000E89AFF91EF918F910F900FBE0F901F90C0
:1004D00018955A9AEEE6F0E080818D7F808314BCF7
:1004E00015BC84B5826084BD85B5826085BD1CBAAB
:1004F000E9E6F0E0808182608083E89AA99A109210
:1005000096017894089580910A01823128F5E0914E
:100510000C01F0E080912001E35FFE4F8083109298
:100520009601E0910C01F0E0E35FFE4F80818A309C
:1005300019F481E08093970180910C018F5F809383
:100540000C0180910C01823111F410920C01809108
:100550000A018F5F80930A01089580910A01882320
:10056000B9F0E0910B01F0E0E35FFE4F80819091E4
:100570000A01915090930A0190910B019F5F909313
:100580000B0190910B01923119F410920B01089517
:100590000895CF92DF92EF92FF920F931F93CF9324
:1005A000DF9311E0C0E0D0E0DD24D3940F2EF8E912
:1005B000EF2EF1E0FF2EF02D06E70F2EFDE0CF2EFF
:1005C000F02D02C021961F5F0E94AD02FE01EC5784
:1005D000FE4F8083F70100839C2F2C2F275027305C
:1005E00060F4FE01EC57FE4F2081203231F0ED2DFA
:1005F000F0E0E856FE4F8083D3949E3031F4ED2D29
:10060000F0E0E856FE4FC082DDCF1231D8F2DF9124
:10061000CF911F910F91FF90EF90DF90CF900895B1
:100620000E9417036894B1110C94A60308950E94C8
:100630008B0388F09F5798F0B92F9927B751B0F0E6
:10064000E1F0660F771F881F991F1AF0BA95C9F756
:1006500014C0B13091F00E94A503B1E008950C944C
:10066000A503672F782F8827B85F39F0B93FCCF3FF
:10067000869577956795B395D9F73EF490958095D3
:10068000709561957F4F8F4F9F4F0895E89409C0F3
:1006900097FB3EF490958095709561957F4F8F4FB5
:1006A0009F4F9923A9F0F92F96E9BB279395F695CB
:1006B000879577956795B795F111F8CFFAF4BB0F49
:1006C00011F460FF1BC06F5F7F4F8F4F9F4F16C0AD
:1006D000882311F096E911C0772321F09EE8872F37
:1006E000762F05C0662371F096E8862F70E060E0F3
:1006F0002AF09A95660F771F881FDAF7880F96956C
:10070000879597F9089557FD9058440F551F59F054
:100710005F3F71F04795880F97FB991F61F09F3FEE
:1007200079F087950895121613061406551FF2CF17
:100730004695F1DF08C0161617061806991FF1CF67
:1007400086957105610508940895E894BB2766278E
:100750007727CB0197F908950E94B10308F48FEF32
:100760000895990F0008550FAA0BE0E8FEEF161642
:100770001706E807F907C0F012161306E407F50795
:1007800098F0621B730B840B950B39F40A2661F009
:10079000232B242B252B21F408950A2609F4A140AC
:1007A000A6958FEF811D811D0895662777270C94EC
:1007B0002404FC0188279927E89421912032E9F349
:1007C000293010F02E30C8F32B3241F02D3239F49D
:1007D000689404C00E940204820F911D219120534D
:1007E0002A30C0F31EF4909581959F4F0895BB2742
:1007F0004A3031F4992322F4BDE2909581959F4FC0
:100800000C940B047AE0979F902D879F802D910D7B
:1008100011240895BB27FB015527AA27880F991F8C
:10082000AA1FA41710F0A41B83955051B9F7A05D1F
:10083000AA3308F0A95DA193009779F7B111B1939C
:100840001192CB010C94A205A0E0B0E0EAE2F4E042
:100850000C945E06EC017B016115710519F0DB015A
:100860008D939C938E010F5F1F4F7880872D90E0B2
:100870000E948105892B11F0E801F4CFBDE27B12C3
:1008800005C00F5F1F4F7980C1E008C0EBE27E1208
:1008900004C08E010E5F1F4F7980C0E06801F1E057
:1008A000CF1AD10843E050E060E770E0C6010E9433
:1008B0008A05892BF1F4680122E0C20ED11C45E0C3
:1008C00050E06BE670E0C6010E948A05892B21F496
:1008D000680187E0C80ED11CE114F10419F0D701BA
:1008E000CD92DC92C111FFC060E070E080E89FE72C
:1008F00003C143E050E068E670E0C6010E948A054B
:10090000892B51F4E114F10409F4F2C00E5F1F4F7A
:10091000F70111830083ECC0680160E070E0CB0157
:1009200000E010E0F601D0EDD70DDA3058F52C2FAD
:100930002260622E2C2F2870C2FF05C0211128C012
:100940000F5F1F4F25C0222311F001501109A5E0B0
:10095000B0E09B01AC010E944F064B015C01880C8A
:10096000991CAA1CBB1CC501B4016D0F711D811D12
:10097000911D6839A9E97A078A07A9E19A0740F029
:10098000C66005C0DE3F51F4C3FD44C0C8606C2E94
:10099000BFEFCB1ADB0A7080C62DC4CF2D2F2F7D61
:1009A0002531C1F540814D3211F4C06106C04B3292
:1009B00021F0319621E030E006C03296D601119642
:1009C0004C9122E030E0A0EDA40FAA3018F0E21B19
:1009D000F30B20C040E050E04038BCE05B075CF423
:1009E0009A01220F331F220F331F420F531F440F50
:1009F000551F4A0F511D3196DF0111972C91A0ED23
:100A0000A20FAA3048F3C4FF03C051954195510984
:100A1000040F151FC1FF07C0E114F10421F0319745
:100A2000D701ED93FC930E944603C370C33019F0C5
:100A30006B017C0106C06B017C01F7FAF094F7F8BA
:100A4000F09420E030E0A901C701B6010E94B20590
:100A5000882309F445C017FF06C0119501951109B7
:100A6000C7E8D0E002C0CFE9D0E05E01B8E1AB1A40
:100A7000B1084601BE2DAF2D90E2E92EF12C0E15E6
:100A80001F0584F0FE012591359145915491B401E3
:100A90008B2F9A2F0E94B7054B01B82FA92F0E1943
:100AA0001F09EDCF2497F594E794CA15DB0539F7B4
:100AB0006401EB2EFA2E8E2D880F8F2D881F8F3F0D
:100AC00049F020E030E0A901C701B6010E94B2055B
:100AD000811106C082E290E09093A3018093A2016D
:100AE000C701B60109C060E070E080E89FEF04C074
:100AF00060E070E080EC9FE7CDB7DEB7EEE00C94ED
:100B00007A0691110C942406803219F08950855090
:100B1000C8F70895FB01DC014150504088F08D91E9
:100B200081341CF08B350CF4805E659161341CF0CF
:100B30006B350CF4605E861B611171F3990B08959F
:100B4000881BFCCFDC01FC01672F71917723E1F753
:100B5000329704C07C916D9370836291AE17BF078A
:100B6000C8F308950E94B10308F481E008950E943B
:100B7000CA050C943E060E94300638F00E943706E3
:100B800020F0952311F00C9427060C942D061124C7
:100B90000C94A6030E94830370F3959FC1F3950FF5
:100BA00050E0551F629FF001729FBB27F00DB11DF1
:100BB000639FAA27F00DB11DAA1F649F6627B00D81
:100BC000A11D661F829F2227B00DA11D621F739F6A
:100BD000B00DA11D621F839FA00D611D221F749F78
:100BE0003327A00D611D231F849F600D211D822FBF
:100BF000762F6A2F11249F5750409AF0F1F08823E6
:100C00004AF0EE0FFF1FBB1F661F771F881F915012
:100C10005040A9F79E3F510580F00C9427060C9494
:100C2000A6035F3FE4F3983ED4F3869577956795E6
:100C3000B795F795E7959F5FC1F7FE2B880F911D3C
:100C40009695879597F9089599278827089597F994
:100C50009F6780E870E060E008959FEF80EC089562
:100C600000240A941616170618060906089500248B
:100C70000A9412161306140605060895092E039405
:100C8000000C11F4882352F0BB0F40F4BF2B11F479
:100C900060FF04C06F5F7F4F8F4F9F4F08950E948A
:100CA0009106A59F900DB49F900DA49F800D911D5E
:100CB000112408952F923F924F925F926F927F92EC
:100CC0008F929F92AF92BF92CF92DF92EF92FF925C
:100CD0000F931F93CF93DF93CDB7DEB7CA1BDB0B08
:100CE0000FB6F894DEBF0FBECDBF09942A883988AD
:100CF00048885F846E847D848C849B84AA84B984B4
:100D0000C884DF80EE80FD800C811B81AA81B981BF
:100D1000CE0FD11D0FB6F894DEBF0FBECDBFED01D3
:100D20000895A29FB001B39FC001A39F700D811DC4
:100D30001124911DB29F700D811D1124911D0895E4
:040D4000F894FFCF55
:00000001FF
