:100000000C9452000C94C4020C946F000C946F007A
:100010000C946F000C946F000C946F000C946F00A4
:100020000C946F000C946F000C946F000C946F0094
:100030000C946F000C946F000C94EC020C946F0005
:100040000C946F000C946F000C94B1000C946F0032
:100050000C94EA000C946F000C946F000C946F00E9
:100060000C946F000C946F004E414E494E49545908
:10007000494E46CDCCCC3D0AD7233C17B7D1387773
:10008000CC2B329595E6241FB14F0A000020410089
:1000900000C84200401C4620BCBE4CCA1B0E5AAED3
:1000A000C59D740011241FBECFEFD8E0DEBFCDBFC9
:1000B00011E0A0E0B1E0E2ECFEE002C005900D929C
:1000C000A230B107D9F721E0A2E0B1E001C01D9252
:1000D000A53CB207E1F70E94EC010C945F070C9479
:1000E00000000F931F93CF93DF93CEE2D1E006E39E
:1000F00011E00E945B018993C017D107D1F70E94DC
:100100005401DF91CF911F910F9108950E947100CA
:1001100080912E0191E08B3209F090E0911106C0A0
:1001200091E08D3209F090E09923D1F08FE291E0D7
:100130000E949D0490930401809303014AE064E2CD
:1001400071E00E94BB0480932E0181E08093020144
:1001500080E091E00E94450184E291E00E94450127
:1001600008951F920F920FB60F9211248F93EF9361
:10017000FF9380910501803228F58091C600E091BF
:100180000701F0E0E85CFE4F8083863229F42D9A67
:1001900081E08093780107C0843621F481E0809368
:1001A000080101C02D98809107018F5F803219F0FE
:1001B0008093070102C010920701809105018F5FB3
:1001C00080930501FF91EF918F910F900FBE0F90DB
:1001D0001F9018951F920F920FB60F9211248F93B4
:1001E000EF93FF93809109018823B9F0E0910A0110
:1001F000F0E0E85AFE4F80818093C60080910901AB
:1002000081508093090180910A018F5F803219F03B
:1002100080930A0102C010920A01FF91EF918F9121
:100220000F900FBE0F901F9018959093C50080936C
:10023000C40086E08093C200E1ECF0E08081886D2C
:100240008083789408959091C00095FF07C09091A5
:100250000901911103C08093C6000895909109018E
:10026000903290F420910B01E22FF0E0E85AFE4F1B
:1002700080839F5F909309012F5F203219F02093B4
:100280000B01089510920B010895CF93DF93EC01B9
:100290008881882331F021960E9423018991811160
:1002A000FBCFDF91CF9108951092070110920601C4
:1002B000109205010895809105018823A1F0909185
:1002C0000601E92FF0E0E85CFE4F20818150809329
:1002D00005019F5F903221F090930601822F0895CF
:1002E00010920601822F0895DC01FB019C013295DA
:1002F00022952F7023273F702327622F6F709B2F2B
:100300009F709D01232F332722952F70A901490F3C
:10031000511D460F511D842F880F480F440FAF7099
:100320004A0F5DEC549FD00111248B2F8595859544
:100330008595322F330F330F330F320F630F392F61
:10034000330F330F390F630F362F380F539FB00120
:100350001124572F559555955595990F950F6AE18D
:10036000699FD0011124220F220F2B0F629FB00131
:100370001124A0E3A70FA083205D770F672F660FDE
:10038000660F670F261B2183905D6B2F660F262F4C
:10039000220F220F260F921B9283305D952F990F0B
:1003A000292F220F220F920F391B3383405D880FB4
:1003B000982F990F990F890F481B44831582A033FA
:1003C00049F49F012F5F3F4FF9012F5F3F4F80811D
:1003D0008033D1F3CF0108950E94280387E690E08F
:1003E0000E9415010E94B402C3EBD0E08091B701D6
:1003F00081110E9442038091B801882399F10E94E3
:1004000088038AEB91E00E9499046B017C01609360
:100410009B0170939C0180939D0190939E0120E02D
:1004200030E0A9010E9494041816D4F420917901B7
:1004300030917A0140917B0150917C01C701B60156
:100440000E94CF03882361F0C0927901D0927A0193
:10045000E0927B01F0927C0189EB91E00E944501E2
:100460001092B80180917801882321F00E948600C3
:1004700010927801809108018823E9F06DE771E01E
:100480008091990190919A010E9474014AE06FE96C
:1004900071E080910301909104010E94BB0480935C
:1004A000A4018DE791E00E9445018FE991E00E944F
:1004B0004501109208018091030190910401892B5C
:1004C00031F180910201882311F120E030E040EA0F
:1004D00051E460919B0170919C0180919D019091EC
:1004E0009E010E949404181694F40E94BF02609129
:1004F0009B0170919C0180919D0190919E010E94B1
:10050000D40370939A016093990110920201C090F4
:100510009B01D0909C01E0909D01F0909E01809104
:10052000990190919A01BC0162507109072E000C4B
:10053000880B990B0E940C04A70196010E94940459
:1005400018160CF053CF20E030E040EA50E4C70129
:10055000B6010E94940418160CF048CF188210922D
:100560009A011092990142CF88E284B983E880937E
:10057000B00081E08093B1001092B30008958091A3
:1005800003018093B30008951F920F920FB60F924C
:1005900011248F93EF93FF9310920C01E898EEE6ED
:1005A000F0E080818D7F808385B58D7F85BD89E07A
:1005B00086BD85B5826085BD87E687BD1092220124
:1005C000808182608083A99AFF91EF918F910F9033
:1005D0000FBE0F901F9018951F920F920FB60F929B
:1005E00011248F93EF93FF9380910C01811106C02A
:1005F00081E080930C0180ED87BD22C080ED87BD36
:1006000080912201883090F4809122018F5F809345
:100610002201809123018695809323014A9B10C07B
:10062000809123018068809323010AC081E0809338
:10063000B701EEE6F0E080818D7F8083E09AE89A52
:10064000FF91EF918F910F900FBE0F901F90189513
:100650005A9AEEE6F0E080818D7F808314BC15BC51
:1006600084B5826084BD85B5826085BD1CBAE9E62B
:10067000F0E0808182608083E89AA99A1092B701A5
:100680007894089580910D01823128F5E0910F0151
:10069000F0E080912301E05FFE4F80831092B7016C
:1006A000E0910F01F0E0E05FFE4F80818A3019F4A5
:1006B00081E08093B80180910F018F5F80930F01DB
:1006C00080910F01823111F410920F0180910D0180
:1006D0008F5F80930D01089580910D018823B9F0FB
:1006E000E0910E01F0E0E05FFE4F808190910D01FE
:1006F000915090930D0190910E019F5F90930E0188
:1007000090910E01923119F410920E0108950895FE
:10071000CF92DF92EF92FF920F931F93CF93DF93CD
:1007200011E0C0E0D0E0DD24D3940F2EF9EBEF2EE2
:10073000F1E0FF2EF02D06E70F2EFDE0CF2EF02D7D
:1007400002C021961F5F0E946C03FE01EB55FE4F15
:100750008083F70100839C2F2C2F2750273060F4D3
:10076000FE01EB55FE4F2081203231F0ED2DF0E0FF
:10077000E754FE4F8083D3949E3031F4ED2DF0E0AA
:10078000E754FE4FC082DDCF1231D8F2DF91CF9116
:100790001F910F91FF90EF90DF90CF9008950E94EE
:1007A000470408F481E008950E94DB036894B111C6
:1007B0000C948E0408950E94730488F09F5798F05B
:1007C000B92F9927B751B0F0E1F0660F771F881F56
:1007D000991F1AF0BA95C9F714C0B13091F00E9470
:1007E0008D04B1E008950C948D04672F782F88272D
:1007F000B85F39F0B93FCCF3869577956795B39597
:10080000D9F73EF490958095709561957F4F8F4F05
:100810009F4F0895E89409C097FB3EF4909580950A
:10082000709561957F4F8F4F9F4F9923A9F0F92FB6
:1008300096E9BB279395F695879577956795B79534
:10084000F111F8CFFAF4BB0F11F460FF1BC06F5F1A
:100850007F4F8F4F9F4F16C0882311F096E911C02C
:10086000772321F09EE8872F762F05C0662371F04D
:1008700096E8862F70E060E02AF09A95660F771F61
:10088000881FDAF7880F9695879597F90895990F3D
:100890000008550FAA0BE0E8FEEF16161706E8074A
:1008A000F907C0F012161306E407F50798F0621B6B
:1008B000730B840B950B39F40A2661F0232B242B40
:1008C000252B21F408950A2609F4A140A6958FEF5F
:1008D000811D811D089557FD9058440F551F59F0F3
:1008E0005F3F71F04795880F97FB991F61F09F3F1D
:1008F00079F087950895121613061406551FF2CF46
:100900004695F1DF08C0161617061806991FF1CF95
:1009100086957105610508940895E894BB276627BC
:100920007727CB0197F908950E94470408F48FEFC9
:100930000895662777270C94E804FC0188279927F7
:10094000E89421912032E9F3293010F02E30C8F3D9
:100950002B3241F02D3239F4689404C00E94C60451
:10096000820F911D219120532A30C0F31EF49095DF
:1009700081959F4F0895BB274A3031F4992322F483
:10098000BDE2909581959F4F0C94CF047AE0979F9C
:10099000902D879F802D910D11240895BB27FB0179
:1009A0005527AA27880F991FAA1FA41710F0A41B68
:1009B00083955051B9F7A05DAA3308F0A95DA193C2
:1009C000009779F7B111B1931192CB010C9466069F
:1009D000A0E0B0E0EEEEF4E00C941D07EC017B012A
:1009E0006115710519F0DB018D939C938E010F5FEA
:1009F0001F4F7880872D90E00E944506892B11F0CB
:100A0000E801F4CFBDE27B1205C00F5F1F4F798074
:100A1000C1E008C0EBE27E1204C08E010E5F1F4FE2
:100A20007980C0E06801F1E0CF1AD10843E050E0DE
:100A300060E770E0C6010E944E06892BF1F4680160
:100A400022E0C20ED11C45E050E06BE670E0C6012A
:100A50000E944E06892B21F4680187E0C80ED11C44
:100A6000E114F10419F0D701CD92DC92C111FFC05D
:100A700060E070E080E89FE703C143E050E068E693
:100A800070E0C6010E944E06892B51F4E114F10476
:100A900009F4F2C00E5F1F4FF70111830083ECC011
:100AA000680160E070E0CB0100E010E0F601D0EDFD
:100AB000D70DDA3058F52C2F2260622E2C2F28709B
:100AC000C2FF05C0211128C00F5F1F4F25C0222380
:100AD00011F001501109A5E0B0E09B01AC010E94AA
:100AE0000E074B015C01880C991CAA1CBB1CC5019C
:100AF000B4016D0F711D811D911D6839A9E97A0737
:100B00008A07A9E19A0740F0C66005C0DE3F51F4AC
:100B1000C3FD44C0C8606C2EBFEFCB1ADB0A7080E7
:100B2000C62DC4CF2D2F2F7D2531C1F540814D32EB
:100B300011F4C06106C04B3221F0319621E030E063
:100B400006C03296D60111964C9122E030E0A0ED1D
:100B5000A40FAA3018F0E21BF30B20C040E050E0D5
:100B60004038BCE05B075CF49A01220F331F220F70
:100B7000331F420F531F440F551F4A0F511D31960B
:100B8000DF0111972C91A0EDA20FAA3048F3C4FF0A
:100B900003C0519541955109040F151FC1FF07C0AE
:100BA000E114F10421F03197D701ED93FC930E94F9
:100BB0000A04C370C33019F06B017C0106C06B01DD
:100BC0007C01F7FAF094F7F8F09420E030E0A90106
:100BD000C701B6010E94CF03882309F445C017FF5F
:100BE00006C0119501951109C7E8D0E002C0CFE910
:100BF000D0E05E01B8E1AB1AB1084601BE2DAF2DC1
:100C000090E2E92EF12C0E151F0584F0FE012591CE
:100C1000359145915491B4018B2F9A2F0E947606FD
:100C20004B01B82FA92F0E191F09EDCF2497F5946A
:100C3000E794CA15DB0539F76401EB2EFA2E8E2DE9
:100C4000880F8F2D881F8F3F49F020E030E0A901E9
:100C5000C701B6010E94CF03811106C082E290E075
:100C60009093C4018093C301C701B60109C060E03D
:100C700070E080E89FEF04C060E070E080EC9FE7E8
:100C8000CDB7DEB7EEE00C94390791110C94E30672
:100C9000803219F089508550C8F70895FB01DC01B6
:100CA0004150504088F08D9181341CF08B350CF40C
:100CB000805E659161341CF06B350CF4605E861BC0
:100CC000611171F3990B0895881BFCCFDC01FC01C5
:100CD000672F71917723E1F7329704C07C916D9370
:100CE00070836291AE17BF07C8F308950E9489060A
:100CF0000C94FD060E94EF0638F00E94F60620F0E4
:100D0000952311F00C94E6060C94EC0611240C9437
:100D10008E040E946B0470F3959FC1F3950F50E011
:100D2000551F629FF001729FBB27F00DB11D639F9D
:100D3000AA27F00DB11DAA1F649F6627B00DA11D43
:100D4000661F829F2227B00DA11D621F739FB00DE9
:100D5000A11D621F839FA00D611D221F749F332759
:100D6000A00D611D231F849F600D211D822F762FF2
:100D70006A2F11249F5750409AF0F1F088234AF0CF
:100D8000EE0FFF1FBB1F661F771F881F915050403B
:100D9000A9F79E3F510580F00C94E6060C948E0452
:100DA0005F3FE4F3983ED4F3869577956795B795C2
:100DB000F795E7959F5FC1F7FE2B880F911D9695DC
:100DC000879597F9089599278827089597F99F6738
:100DD00080E870E060E008959FEF80EC08950024C3
:100DE0000A941616170618060906089500240A9490
:100DF00012161306140605060895092E0394000C16
:100E000011F4882352F0BB0F40F4BF2B11F460FFA4
:100E100004C06F5F7F4F8F4F9F4F08950E94500710
:100E2000A59F900DB49F900DA49F800D911D11243E
:100E300008952F923F924F925F926F927F928F927E
:100E40009F92AF92BF92CF92DF92EF92FF920F9359
:100E50001F93CF93DF93CDB7DEB7CA1BDB0B0FB663
:100E6000F894DEBF0FBECDBF09942A883988488820
:100E70005F846E847D848C849B84AA84B984C884B6
:100E8000DF80EE80FD800C811B81AA81B981CE0FAD
:100E9000D11D0FB6F894DEBF0FBECDBFED01089592
:100EA000A29FB001B39FC001A39F700D811D1124AB
:100EB000911DB29F700D811D1124911D0895F8940C
:020EC000FFCF62
:020EC2005000DE
:00000001FF
